:100B3D00C102C103C100C1010129010225019002B9
:030B4D0023000082
:10090A00D2B6D2B7D2A3D2A2D2A1D2A0D2CCD2B3DB
:10091A00D2B2C2B7C2B67F647E00120ADDD2B7D2A3
:10092A00B6752A0B752B01E4F52D120B63120B9584
:10093A00120B74D2AFD2A9D2B975AF047F647E000C
:10094A00120ADD85212585222612060C30B2FA30DC
:0D095A00B3F730CCF4D2CCD2B3D2B280ECE3
:100ADD00D3EF9400EE9400401100007D167C80DC75
:0A0AED00FEDDFCEF1F70E91E80E63D
:010AF70022DC
:100B1300D3EF9400EE9400400B7D03DDFEEF1F70D6
:040B2300EF1E80EC55
:010B270022AB
:100B6300538E7F5389F0E4F58A758C70C28DD28CD5
:010B7300225F
:0D0B9500538EFBE4F5D775D6DC438E10229D
:1009F50020002CD2B5D2B67FC87E00120B13E4FFBF
:100A0500120A308E128F13C2B5C2B67F287E00122D
:100A15000B13E4FF120A308E108F11D2B5D2B6C374
:0A0A2500E5119513FFE5109512FE90
:010A2F0022A4
:10060C00A2B2B3400AA2B3B34005A2CCB35035E5B5
:10061C002E70317F0AFE120ADDA2B2B3500A752E7B
:10062C0001A2B2B3501E80F9A2B3B3500A752E02C8
:10063C00A2B3B3500F80F9A2CCB35008752E03A20D
:10064C00CCB340FBE52E64017067752901E52F7072
:10065C0003752F01A2B2B35014E52F6010052FE5DE
:10066C002F64057003752F01A2B2B340FBA2B3B384
:10067C00502DE52F602924FE6012146013146018AD
:10068C0024037016740A252AF52A800E052A800A7E
:10069C00740A252BF52B8002052BA2B3B340FBA2C9
:1006AC00CCB3500DE4F52FF52EA2CCB340FB75293D
:1006BC0001E52E64027029752902A2B2B34005A28D
:1006CC00B3B3500CB202A2B2B340FBA2B3B340F628
:1006DC00A2CCB3500BE4F52EA2CCB340FB7529028F
:1006EC00E52E64037077752903A2B2B35017E52C7D
:1006FC007005752C038009152CE52C7003752C04E2
:10070C00A2B2B340FBA2B3B35010052CE52C640588
:10071C007003752C01A2B3B340FBA2CCB3503EE4E2
:10072C00F52EE52C24FE601214601714601C2403B3
:10073C007020D200C203D201801BD200D203C201AE
:10074C008013C200C203C201800B8521258522269D
:0E075C008003752C03A2CCB340FB752901224B
:03000B0002076A7F
:0B076A00C0E0C0D075D000C006C00782
:100775000508AF297E00EF6024E52E702020011DBD
:100785000509E50964FA7015200304F529800EEFC3
:1007950064014E70057529028003752901AF087E35
:1007A50000D3EF941974809480400AE529640170A0
:1007B50004D2068002C206EF64324E7020F50805A9
:1007C5002DE52D643C7016F52D052BE52B643C704D
:1007D5000CF52B052AE52A64187002F52AD3E52DB8
:1007E500943B748094804003752D00D3E52B943B96
:1007F500748094804003752B00D3E52A9417748088
:0708050094804003752A00F6
:09080C00D007D006D0D0D0E032B4
:0300630002006632
:10006600C0E0C0F0C083C082C0D075D000C000C060
:0D00760001C002C003C004C005C006C007E1
:10008300050CE50C640A600302018BF50C050DE514
:100093000D640A701AF50DE529640270121208A1A5
:1000A3008E278F287C007D7D12056F8E278F281267
:1000B30009F58E218F227F01120A308E308F31AFE6
:1000C3002A7E00D3EF9406748094804036AD2BD300
:1000D300ED941E74809480402AEF9412748094806F
:1000E3005021C3ED941E748094805017E53194F42D
:1000F300E5309401400D74C82531F531E43530F510
:1001030030800DC3E53194C8E53094005002C2B687
:10011300D3E53194F2E5309403400675300375312D
:10012300F2C3E5319464E5309400500675300075F0
:100133003164200053E5262414FFE43525FED3E57E
:10014300229FE5219E4020050A750B00E50A640302
:100153007015F50A200410E529640170057529025C
:100163008003752901D204E526240AFFE43525FE20
:10017300C3E5229FE5219E500F050B750A00E50B91
:1001830064037004F50BC204E529640160030202F1
:100193006BE52E6401600302022FE52F64017012E8
:1001A300A206B35009E52A75F00A84FD800B7D147D
:1001B3008007E52A75F00A84FD7C00E4FF12000E37
:1001C300E52F6402700FA206B3500280087D147CF1
:1001D30000E4FF800DE52A75F00A84E5F0FD7C005C
:1001E3007F0112000EE52F6403700FA206B35002C5
:1001F30080087D147C00E4FF800BE52B75F00A84F6
:10020300FD7C007F0212000EE52F6404700FA2062E
:10021300B3500280087D147C00E4FF8048E52B7511
:10022300F00A84E5F0FD7C007F038039E52A75F050
:100233000A84FD7C00E4FF12000EE52A75F00A84AF
:10024300E5F0FD7C007F0112000EE52B75F00A84BA
:10025300FD7C007F0212000EE52B75F00A84E5F0A9
:10026300FD7C007F0312000EE52964026003020394
:1002730042AE27AF28300263FC7D641205D67C00B2
:100283007D1212056F7D641205D6EF2420F50FE46D
:100293003EF50EFEAF0F7C007D64120581AC06AD0A
:1002A30007E4FF12000EAE0EAF0F7C007D64120553
:1002B300817E007F0ACFCDCFCECCCE120581AC0696
:1002C300AD077F0112000EAE0EAF0F7C007D0A1248
:1002D30005817F0212000E7D0F805D7C277D101249
:1002E30005D6AC06AD07E4FF12000EAE27AF287C9F
:1002F300277D101205D67E037FE8CFCDCFCECCCE9F
:100303001205D6AC06AD077F0112000E7D137C00EB
:100313007F0112000EAE27AF287C037DE81205D6BD
:100323007E007F64CFCDCFCECCCE1205D6AC06AD4A
:10033300077F0212000E7D0C7C007F0312000EE586
:100343002964036003020433E52C700302040F24C1
:10035300FE602214603414605024036003020433EB
:100363007D127C00E4FF12000EE4FDFC7F0112000D
:100373000E7D0180287D127C00E4FF12000EE4FD57
:10038300FC7F0112000E7D0280137D127C00E4FFCE
:1003930012000EE4FDFC7F0112000E7D037C007F42
:1003A3000212000E7D1202042CAE25AF267C037DC3
:1003B300E8120581AC06AD07E4FF12000EAE25AFCF
:1003C300267C037DE81205817E007F64CFCDCFCEEE
:1003D300CCCE120581AC06AD077F0112000EAE250F
:1003E300AF267C007D641205817E007F0ACFCDCFCE
:1003F300CECCCE120581AC06AD077F0212000EAE45
:1004030025AF267C007D0A120581801F7D147C00A8
:10041300E4FF12000E7D0A7C007F0112000E7D11A5
:100423007C007F0212000E7D117C007F0312000E00
:10043300D007D006D005D004D003D002D001D0001D
:0B044300D0D0D082D083D0F0D0E032C7
:100B280077066B2F1E3D7D077F3F5F7C716E79597D
:050B38005E7008800062
:100A6A00C2CDD2CDEF900B2893FFE4FEEEC39408DB
:100A7A00748094805016EF54017004C2A48002D28C
:0C0A8A00A4C2A5D2A5EFC313FF0E80E0AC
:010A9600223D
:1008A1007517007518007519107B02E4FD7F901211
:1008B1000967E51020E721751200F513E51375139B
:1008C10000F512FEE51345117805CEA2E713CE130C
:1008D100D8F8F5138E12802C751200851013E513CC
:1008E100751300F512FEE51345117805CEA2E71345
:1008F100CE13D8F8F5138E12C3E49513F5137408CB
:080901009512F512AE12AF13BE
:0109090022CB
:040003000E0D0B07CC
:100B5100D3EF9400EE9400400800EF1F70F21E8066
:020B6100EF2281
:06000E008F108C118D1211
:1000140078137C007D007BFF7A0079037E007F04E7
:1000240012051ED2CD74132510F8E6F5A0AF1212F6
:100034000A6A300604C2B48002D2B4AF31AE3012C0
:100044000B51C2CD74132510F8E6F4F5A0D2B4C355
:0C005400E49531FF74049530FE020B515E
:070B8500D2A6120B8CD2A7CF
:080B8C007F02AE071FEE70FAB4
:010B9400223E
:0A0BBB00D2A7D2A6120B8C020B8CFD
:0D0BA200120B85C2A6120B8CC2A7020B8C91
:0A0BC500C2A6120B87D2A6020B8C09
:020AF800AD0748
:100AFA007B08ED3392A6ED25E0FDD2A7120B8CC23E
:080B0A00A7120B8C1BEB70EA33
:010B120022C0
:100ABE007C08D2A6D2A7120B8CED25E0FD30A60342
:0E0ACE00430501C2A7120B8C1CEC70E8AF05AB
:010ADC0022F7
:100A9700AC07AA05120BBB120B8C120B8C5304FE6E
:080AA700120BA2AF04120AF8C1
:0E0AAF00120B85A2A69205C2A7120B8CA205FF
:010ABD002216
:0C0BAF00A20592A6120B87C2A7020B8CB5
:1009B8008B1C120A9750028026AF02120AF8120AFC
:1009C800AF5002801AAB1D051FE51FAA1E70020555
:1009D8001E14F9120544FF120AF8120AAF50030256
:0D09E8000BC5151CE51C70DD120BC5C322EC
:100967008B16120A9750028017AF02120AF8120A62
:10097700AF5002800B120BA2430401120AAA5003C4
:10098700020BC5120ABEAB170519E519AA187002A2
:10099700051814F9EF12055D1516E5167007D2054F
:1009A700120BAF8007C205120BAF80D7120BC5C35E
:0109B700221D
:100B7400E4F595759602759D03F5BEF5BD75BCE06B
:010B8400224E
:100A3000E4F5BEF5BDE5BC54E044084FF5BCE4FF69
:100A4000EFC394FA74809480501BE5BC30E41353D8
:100A5000BCEFAFBDEF75F004A4FFAEF0ADBEEF4D3F
:090A6000FF220F80DB7E047F0001
:010A6900226A
:03000000020815DE
:0C081500787FE4F6D8FD75813102085CA4
:10044E00E709F608DFFA8046E709F208DFFA803E90
:10045E0088828C83E709F0A3DFFA8032E309F6087D
:10046E00DFFA8078E309F208DFFA807088828C83E5
:10047E00E309F0A3DFFA806489828A83E0A3F60899
:10048E00DFFA805889828A83E0A3F208DFFA804C73
:10049E0080D280FA80C680D4806980F2803380104A
:1004AE0080A680EA809A80A880DA80E280CA8033B3
:1004BE0089828A83ECFAE493A3C8C582C8CCC5832B
:1004CE00CCF0A3C8C582C8CCC583CCDFE9DEE780FB
:1004DE000D89828A83E493A3F608DFF9ECFAA9F07A
:1004EE00EDFB2289828A83ECFAE0A3C8C582C8CCD0
:1004FE00C583CCF0A3C8C582C8CCC583CCDFEADEE9
:10050E00E880DB89828A83E493A3F208DFF980CC4A
:10051E0088F0EF60010E4E60C388F0ED2402B40443
:10052E000050B9F582EB2402B4040050AF232345EA
:06053E00822390049E736D
:10054400BB010689828A83E0225002E722BBFE02B5
:09055400E32289828A83E49322E8
:10055D00BB010689828A83F0225002F722BBFE017D
:02056D00F32277
:10056F00EF8DF0A4A8F0CF8CF0A428CE8DF0A42EA0
:02057F00FE225A
:10058100BC000BBE0029EF8DF084FFADF022E4CC5E
:10059100F875F008EF2FFFEE33FEEC33FCEE9DEC27
:1005A100984005FCEE9DFE0FD5F0E9E4CEFD22ED6D
:1005B100F8F5F0EE8420D21CFEADF075F008EF2FB7
:1005C100FFED33FD4007985006D5F0F222C398FDA8
:0505D1000FD5F0EA2245
:1005D600C2D5EC30E709B2D5E4C39DFDE49CFCEE40
:1005E60030E715B2D5E4C39FFFE49EFE120581C332
:1005F600E49DFDE49CFC800312058130D507C3E42D
:060606009FFFE49EFE22AE
:1008210002090AE493A3F8E493A34003F68001F2DA
:1008310008DFF48029E493A3F85407240CC8C333D8
:10084100C4540F4420C8834004F456800146F6DFA7
:10085100E4800B0102040810204080900B3DE47EEF
:10086100019360BCA3FF543F30E509541FFEE4939C
:10087100A360010ECF54C025E060A840B8E493A363
:10088100FAE493A3F8E493A3C8C582C8CAC583CA8E
:10089100F0A3C8C582C8CAC583CADFE9DEE780BE46
:010B500000A4
:00000001FF
