:100B3C00C102C103C100C101011001020C019002EC
:030B4C000A00009C
:10090600D2B6D2B7D2A3D2A2D2A1D2A0D2CCD2B3DF
:10091600D2B2C2B77F647E00120ADCD2B7C2B67505
:10092600110B751201E4F514120B62120B94120BE3
:1009360073D2AFD2A9D2B975AF047F647E00120A12
:10094600DC85080C85090D12089B8E0E8F0F7C0026
:100956007D7D12056F8E0E8F0FD2B712060C80F9B1
:100ADC00D3EF9400EE9400401100007D167C80DC76
:0A0AEC00FEDDFCEF1F70E91E80E63E
:010AF60022DD
:100B1200D3EF9400EE9400400B7D03DDFEEF1F70D7
:040B2200EF1E80EC56
:010B260022AC
:100B6200538E7F5389F0E4F58A758C70C28DD28CD6
:010B72002260
:0D0B9400538EFBE4F5D775D6DC438E10229E
:1009F40020002CD2B5D2B67FC87E00120B12E4FFC1
:100A0400120A2F8E2B8F2CC2B5C2B67F287E0012FD
:100A14000B12E4FF120A2F8E298F2AD2B5D2B6C345
:0A0A2400E52A952CFFE529952BFE2D
:010A2E0022A5
:10060C00A2B2B3400AA2B3B34005A2CCB3502FE5BB
:10061C0015702BA2B2B3500A751501A2B2B3501EBD
:10062C0080F9A2B3B3500A751502A2B3B3500F8070
:10063C00F9A2CCB35008751503A2CCB340FBE51559
:10064C0064017067751001E5167003751601A2B28E
:10065C00B35014E51660100516E5166405700375A5
:10066C001601A2B2B340FBA2B3B3502DE51660291C
:10067C0024FE601214601314601824037016740A9C
:10068C002511F511800E0511800A740A2512F51238
:10069C0080020512A2B3B340FBA2CCB3500DE4F51B
:1006AC0016F515A2CCB340FB751001E5156402706C
:1006BC0029751002A2B2B34005A2B3B3500CB2021A
:1006CC00A2B2B340FBA2B3B340F6A2CCB3500BE43E
:1006DC00F515A2CCB340FB751002E51564037077D9
:1006EC00751003A2B2B35017E51370057513038090
:1006FC00091513E5137003751304A2B2B340FBA2E2
:10070C00B3B350100513E51364057003751301A200
:10071C00B3B340FBA2CCB3503EE4F515E51324FE75
:10072C00601214601714601C24037020D200C203E2
:10073C00D201801BD200D203C2018013C200C203BB
:10074C00C201800B85080C85090D8003751303A26B
:08075C00CCB340FB7510012233
:03000B0002076485
:0B076400C0E0C0D075D000C006C00788
:10076F000521AF107E00EF6024E515702020011DDC
:10077F000522E52264FA7015200304F510800EEFB0
:10078F0064014E70057510028003751001AF217E54
:10079F0000D3EF941974809480400AE510640170BF
:1007AF0004D2078002C207EF64324E7020F5210594
:1007BF0014E514643C7016F5140512E512643C70D0
:1007CF000CF5120511E51164187002F511D3E5143B
:1007DF00943B748094804003751400D3E512943BCE
:1007EF00748094804003751200D3E51194177480C0
:0707FF009480400375110016
:09080600D007D006D0D0D0E032BA
:0300630002006632
:10006600C0E0C0F0C083C082C0D075D000C000C060
:0D00760001C002C003C004C005C006C007E1
:100083000525E525640A600302018BF5250526E5B0
:1000930026640A701AF526E5106402701212089B92
:1000A3008E0E8F0F7C007D7D12056F8E0E8F0F12CB
:1000B30009F48E088F097F01120A2F8E1D8F1EAF40
:1000C300117E00D3EF9406748094804036AD12D332
:1000D300ED941E74809480402AEF9412748094806F
:1000E3005021C3ED941E748094805017E51E94F440
:1000F300E51D9401400D74C8251EF51EE4351DF55C
:100103001D800DC3E51E94C8E51D94005002C2B6C0
:10011300D3E51E94F2E51D94034006751D03751E79
:10012300F2C3E51E9464E51D94005006751D007529
:100133001E64200053E50D2414FFE4350CFED3E5C3
:10014300099FE5089E40200523752400E5236403E9
:100153007015F523200410E5106401700575100275
:100163008003751001D204E50D240AFFE4350CFE6B
:10017300C3E5099FE5089E500F0524752300E52478
:1001830064037004F524C204E510640160030202F1
:100193006BE5156401600302022FE516640170121A
:1001A300A207B35009E51175F00A84FD800B7D1495
:1001B3008007E51175F00A84FD7C00E4FF12000E50
:1001C300E5166402700FA207B3500280087D147C09
:1001D30000E4FF800DE51175F00A84E5F0FD7C0075
:1001E3007F0112000EE5166403700FA207B35002DD
:1001F30080087D147C00E4FF800BE51275F00A840F
:10020300FD7C007F0212000EE5166404700FA20746
:10021300B3500280087D147C00E4FF8048E512752A
:10022300F00A84E5F0FD7C007F038039E51175F069
:100233000A84FD7C00E4FF12000EE51175F00A84C8
:10024300E5F0FD7C007F0112000EE51275F00A84D3
:10025300FD7C007F0212000EE51275F00A84E5F0C2
:10026300FD7C007F0312000EE510640260030203AD
:1002730042AE0EAF0F300263FC7D641205D67C00E4
:100283007D1212056F7D641205D6EF2420F528E454
:100293003EF527FEAF287C007D64120581AC06ADD8
:1002A30007E4FF12000EAE27AF287C007D64120521
:1002B300817E007F0ACFCDCFCECCCE120581AC0696
:1002C300AD077F0112000EAE27AF287C007D0A1216
:1002D30005817F0212000E7D0F805D7C277D101249
:1002E30005D6AC06AD07E4FF12000EAE0EAF0F7CD1
:1002F300277D101205D67E037FE8CFCDCFCECCCE9F
:100303001205D6AC06AD077F0112000E7D137C00EB
:100313007F0112000EAE0EAF0F7C037DE81205D6EF
:100323007E007F64CFCDCFCECCCE1205D6AC06AD4A
:10033300077F0212000E7D0C7C007F0312000EE586
:100343001064036003020433E513700302040F24F3
:10035300FE602214603414605024036003020433EB
:100363007D127C00E4FF12000EE4FDFC7F0112000D
:100373000E7D0180287D127C00E4FF12000EE4FD57
:10038300FC7F0112000E7D0280137D127C00E4FFCE
:1003930012000EE4FDFC7F0112000E7D037C007F42
:1003A3000212000E7D1202042CAE0CAF0D7C037DF5
:1003B300E8120581AC06AD07E4FF12000EAE0CAFE8
:1003C3000D7C037DE81205817E007F64CFCDCFCE07
:1003D300CCCE120581AC06AD077F0112000EAE0C28
:1003E300AF0D7C007D641205817E007F0ACFCDCFE7
:1003F300CECCCE120581AC06AD077F0212000EAE45
:100403000CAF0D7C007D0A120581801F7D147C00DA
:10041300E4FF12000E7D0A7C007F0112000E7D11A5
:100423007C007F0212000E7D117C007F0312000E00
:10043300D007D006D005D004D003D002D001D0001D
:0B044300D0D0D082D083D0F0D0E032C7
:100B270077066B2F1E3D7D077F3F5F7C716E79597E
:050B37005E7008800063
:100A6900C2CDD2CDEF900B2793FFE4FEEEC39408DD
:100A7900748094805016EF54017004C2A48002D28D
:0C0A8900A4C2A5D2A5EFC313FF0E80E0AD
:010A9500223E
:10089B00753A00753B00753C337B02E4FD7F90128B
:1008AB000966E53320E721753500F536E5367536F3
:1008BB0000F535FEE53645347805CEA2E713CE13A9
:1008CB00D8F8F5368E35802C753500853336E53600
:1008DB00753600F535FEE53645347805CEA2E713BF
:1008EB00CE13D8F8F5368E35C3E49536F536740845
:0A08FB009535F535C2B7AE35AF36BE
:0109050022CF
:040003000E0D0B07CC
:100B5000D3EF9400EE9400400800EF1F70F21E8067
:020B6000EF2282
:06000E008F298C2A8D2BC6
:10001400782C7C007D007BFF7A0079037E007F04CE
:1000240012051ED2CD742C2529F8E6F5A0AF2B12AB
:100034000A69300704C2B48002D2B4AF1EAE1D12E6
:100044000B50C2CD742C2529F8E6F4F5A0D2B4C324
:0C005400E4951EFF7404951DFE020B5085
:070B8400D2A6120B8BD2A7D1
:080B8B007F02AE071FEE70FAB5
:010B9300223F
:0A0BBA00D2A7D2A6120B8B020B8B00
:0D0BA100120B84C2A6120B8BC2A7020B8B95
:0A0BC400C2A6120B86D2A6020B8B0C
:020AF700AD0749
:100AF9007B08ED3392A6ED25E0FDD2A7120B8BC240
:080B0900A7120B8B1BEB70EA35
:010B110022C1
:100ABD007C08D2A6D2A7120B8BED25E0FD30A60344
:0E0ACD00430501C2A7120B8B1CEC70E8AF05AD
:010ADB0022F8
:100A9600AC07AA05120BBA120B8B120B8B5304FE72
:080AA600120BA1AF04120AF7C4
:0E0AAE00120B84A2A69206C2A7120B8BA20600
:010ABC002217
:0C0BAE00A20692A6120B86C2A7020B8BB7
:1009B7008B19120A9650028026AF02120AF7120A02
:1009C700AE5002801AAB1A051CE51CAA1B70020563
:1009D7001B14F9120544FF120AF7120AAE5003025C
:0D09E7000BC41519E51970DD120BC4C322F5
:100966008B39120A9650028017AF02120AF7120A42
:10097600AE5002800B120BA1430401120AA95003C8
:10098600020BC4120ABDAB3A053CE53CAA3B700219
:10099600053B14F9EF12055D1539E5397007D206E6
:1009A600120BAE8007C206120BAE80D7120BC4C361
:0109B600221E
:100B7300E4F595759602759D03F5BEF5BD75BCE06C
:010B8300224F
:100A2F00E4F5BEF5BDE5BC54E044084FF5BCE4FF6A
:100A3F00EFC394FA74809480501BE5BC30E41353D9
:100A4F00BCEFAFBDEF75F004A4FFAEF0ADBEEF4D40
:090A5F00FF220F80DB7E047F0002
:010A6800226B
:0300000002080FE4
:0C080F00787FE4F6D8FD75813C020856A5
:10044E00E709F608DFFA8046E709F208DFFA803E90
:10045E0088828C83E709F0A3DFFA8032E309F6087D
:10046E00DFFA8078E309F208DFFA807088828C83E5
:10047E00E309F0A3DFFA806489828A83E0A3F60899
:10048E00DFFA805889828A83E0A3F208DFFA804C73
:10049E0080D280FA80C680D4806980F2803380104A
:1004AE0080A680EA809A80A880DA80E280CA8033B3
:1004BE0089828A83ECFAE493A3C8C582C8CCC5832B
:1004CE00CCF0A3C8C582C8CCC583CCDFE9DEE780FB
:1004DE000D89828A83E493A3F608DFF9ECFAA9F07A
:1004EE00EDFB2289828A83ECFAE0A3C8C582C8CCD0
:1004FE00C583CCF0A3C8C582C8CCC583CCDFEADEE9
:10050E00E880DB89828A83E493A3F208DFF980CC4A
:10051E0088F0EF60010E4E60C388F0ED2402B40443
:10052E000050B9F582EB2402B4040050AF232345EA
:06053E00822390049E736D
:10054400BB010689828A83E0225002E722BBFE02B5
:09055400E32289828A83E49322E8
:10055D00BB010689828A83F0225002F722BBFE017D
:02056D00F32277
:10056F00EF8DF0A4A8F0CF8CF0A428CE8DF0A42EA0
:02057F00FE225A
:10058100BC000BBE0029EF8DF084FFADF022E4CC5E
:10059100F875F008EF2FFFEE33FEEC33FCEE9DEC27
:1005A100984005FCEE9DFE0FD5F0E9E4CEFD22ED6D
:1005B100F8F5F0EE8420D21CFEADF075F008EF2FB7
:1005C100FFED33FD4007985006D5F0F222C398FDA8
:0505D1000FD5F0EA2245
:1005D600C2D5EC30E709B2D5E4C39DFDE49CFCEE40
:1005E60030E715B2D5E4C39FFFE49EFE120581C332
:1005F600E49DFDE49CFC800312058130D507C3E42D
:060606009FFFE49EFE22AE
:10081B00020906E493A3F8E493A34003F68001F2E4
:10082B0008DFF48029E493A3F85407240CC8C333DE
:10083B00C4540F4420C8834004F456800146F6DFAD
:10084B00E4800B0102040810204080900B3CE47EF6
:10085B00019360BCA3FF543F30E509541FFEE493A2
:10086B00A360010ECF54C025E060A840B8E493A369
:10087B00FAE493A3F8E493A3C8C582C8CAC583CA94
:10088B00F0A3C8C582C8CAC583CADFE9DEE780BE4C
:010B4F0000A5
:00000001FF
